:020000041000EA
:1080000010B5164A164B9A4212D01A00154B9A42D6
:108010000ED2154B134A0332D21A92080132920043
:1080200000230F480D49CC58C45004339342FAD171
:108030000E4A0F4B9A420BD21300D2430C495218EE
:1080400003218A430432D218002102C39A42FCD190
:10805000084B9847084B984710BDC0469008011040
:108060009008011000090110940801100009011086
:108070003430011065EA00103DAC001010B5064C1C
:108080002378002B07D1054B002B02D0044800E0D9
:1080900000BF0123237010BD000901100000000083
:1080A00090080110084B10B5002B03D00749084871
:1080B00000E000BF07480368002B00D110BD064B4D
:1080C000002BFBD09847F9E70000000004090110DD
:1080D00090080110900801100000000000230370B8
:1080E000012242708370C3707047000070B517237F
:1080F00001282ED907282ED8644D6A6C103B034006
:108100009B0007249C40A2436A6403001D3B022B92
:1081100057D84B78012B4BD05D4D2B7D1F24241A53
:108120000122A2401343DBB22B75CA780023002A38
:108130000FD057490B881F22101A80001E3A824028
:1081400013439BB20B80534A137802210B431370E5
:108150000023180070BD0F2809D84C4DAA6C0723C6
:1081600003409B0007249C40A243AA64CDE7172844
:1081700009D8464DEA6C072303409B0007249C4026
:10818000A243EA64C1E703002C3B032BBDD8404D5A
:108190008224E4002B5D1B0702002C3A0126964046
:1081A0001B0F2A5DB3430F26B24313432B55ACE795
:1081B000374D2B7D1F24241A0122A24093432B7597
:1081C000B3E70A78002A40D10F2810D80123834052
:1081D0009BB2314A938200231F28BAD84B78012BD7
:1081E00020D0002B16D0022B24D01723B1E71F2854
:1081F00007D80F220240012393409BB2274A938263
:10820000ECE70F2318400E3B83409BB2244A938235
:1082100000239EE71D4A116D012383400B43136524
:10822000002396E719490B6D0122824093430B65A9
:1082300000238EE7154B596D012282401143596589
:10824000196D91431965002383E70023012A00D0AB
:108250007FE70F280AD91F280FD90F2318400E3B9C
:1082600083409BB20E4A1382002372E7013383409E
:108270009BB2094A138200236BE70F2318400E3B81
:1082800083409BB2054A1382002362E700B000409E
:1082900000F0004000E000400000014000100140FC
:1082A000003001400F2810D8002907D01D498B88C5
:1082B0000122824013439BB28B80704719498B88FF
:1082C0000122824093438B80F7E71F2814D80029AE
:1082D00009D015498B880F2210400E3A8240134373
:1082E0009BB28B80E9E710498B880F2210400E3A31
:1082F000824093438B80E0E7002908D10B498B88AB
:108300000F2210400E3A824093438B80D5E70749F5
:108310008B880F2210400E3A824013439BB28B8011
:10832000CBE7C04600000140001001400030014092
:1083300070B50A0AFF231940072832D84D4C656CE6
:10834000F83B03409B0007269E40B5436564656C7F
:108350000E009E4033002B436364012900D070BDA2
:1083600003280ED8A031FF31655803231840C00000
:108370003C3383409D436550635882401A436250AA
:10838000EDE73C4CD2214900655803231840C0005A
:108390003C3383409D436550635882401A4362508A
:1083A000DDE70F2831D8334CA56C072303409B0031
:1083B00007269E40B543A564A56C0E009E40330081
:1083C0002B43A3640129CAD10B280ED8A831FF3151
:1083D000655803231840C0003C3383409D436550DB
:1083E000635882401A436250B9E7224CD6214900B3
:1083F000655803231840C0003C3383409D436550BB
:10840000635882401A436250A9E71728A7D8194C2D
:10841000E56C072303409B0007269E40B543E564B7
:10842000E56C0E009E4033002B43E364012996D196
:1084300013280FD90F4CDA2149006558032318403F
:10844000C0003C3383409D436550635882401A43CB
:10845000625084E7B031FF31655803231840C000F3
:108460003C3383409D436550635882401A436250B9
:1084700075E7C04600B00040012819D0002803D09D
:10848000022828D0172012E0174A93690C200343D2
:108490009361164A164B1A60134A9369032083436B
:1084A0009361906903231940014391610020704753
:1084B0000D4B9A69082002439A619A6904388243F5
:1084C0009A610C4A506880231B03034353600A4A95
:1084D000074B1A60E0E7044A93690C2083439361D9
:1084E000024A034B1A60D7E700B0004080BA8C0103
:1084F000D81E011000F0004080841E00014B186857
:108500007047C046D81E011000B5352800D9A2E139
:108510008000D24B1B589F46D14AD36802210B439F
:10852000D360002000BDCE4AD36804210B43D36042
:108530000020F7E7CA4AD36808210B43D360002024
:10854000F0E7C74AD36810210B43D3600020E9E766
:10855000C34AD36820210B43D3600020E2E7C04A1E
:10856000D36880210B43D3600020DBE7BC4AD1688D
:1085700080235B000B43D3600020D3E7B84AD16867
:1085800080231B010B43D3600020CBE7B44AD168A2
:1085900080235B010B43D3600020C3E7B04AD1685E
:1085A00080239B010B43D3600020BBE7AC4AD1681A
:1085B0008023DB010B43D3600020B3E7A84AD168D6
:1085C00080231B020B43D3600020ABE7A44AD16891
:1085D00080235B020B43D3600020A3E7A04AD1684D
:1085E00080239B020B43D36000209BE79C4AD16809
:1085F0008023DB020B43D360002093E7984AD168C5
:1086000080231B030B43D36000208BE7944AD1687F
:1086100080235B030B43D360002083E7904AD1683B
:1086200080239B030B43D36000207BE78C4AD168F7
:108630008023DB030B43D360002073E7884AD168B3
:1086400080231B040B43D36000206BE7844AD1686E
:1086500080235B040B43D360002063E7804AD1682A
:1086600080239B040B43D36000205BE77C4AD168E6
:108670008023DB040B43D360002053E7784AD168A2
:1086800080231B050B43D36000204BE7744AD1685D
:1086900080235B050B43D360002043E7704AD16819
:1086A00080239B050B43D36000203BE76C4AD168D5
:1086B0008023DB050B43D360002033E7684A13694E
:1086C00001210B43136100202CE7654A1369022145
:1086D0000B431361002025E7614A136904210B4312
:1086E000136100201EE75E4A136908210B431361E2
:1086F000002017E75A4A136910210B431361002029
:1087000010E7574A136920210B431361002009E742
:10871000534A136940210B431361002002E7504A7A
:10872000136980210B4313610020FBE64C4A116959
:1087300080235B000B4313610020F3E6484A116974
:1087400080239B000B4313610020EBE6444A116930
:108750008023DB000B4313610020E3E6404A1169EC
:1087600080231B010B4313610020DBE63C4A1169A7
:1087700080235B010B4313610020D3E6384A116963
:1087800080239B010B4313610020CBE6344A11691F
:108790008023DB010B4313610020C3E6304A1169DB
:1087A00080231B020B4313610020BBE62C4A116996
:1087B00080235B020B4313610020B3E6284A116952
:1087C00080239B020B4313610020ABE6244A11690E
:1087D0008023DB020B4313610020A3E6204A1169CA
:1087E00080231B030B43136100209BE61C4A116985
:1087F00080235B030B431361002093E6184A116941
:1088000080239B030B43136100208BE6144A1169FC
:108810008023DB030B431361002083E6104A1169B8
:1088200080231B040B43136100207BE60C4A137D5D
:1088300001210B431375002074E6094A137D0221C0
:108840000B43137500206DE6054A137D04210B438D
:108850001375002066E6172064E6C04604FD00108C
:1088600000B0004000B5432800D91BE28000D74B80
:108870001B589F46D64B59680220814359605A685D
:1088800002435A60002000BDD14B59680420814347
:1088900059605A6802435A600020F4E7CC4B59688B
:1088A0000820814359605A6802435A600020EAE771
:1088B000C74B59681020814359605A6802435A6077
:1088C0000020E0E7C24B59682020814359605A6874
:1088D00002435A600020D6E7BD4B596840208143CF
:1088E00059605A6802435A600020CCE7B84B596877
:1088F0008020814359605A6802435A600020C2E7D1
:10890000B34B5A68B3490A405A60596880225200F2
:108910000A435A600020B6E7AD4B5A68AE490A4098
:108920005A605968802292000A435A600020AAE7E0
:10893000A74B5A68A9490A405A6059688022D20058
:108940000A435A6000209EE7A14B5A68A4490A4096
:108950005A605968802212010A435A60002092E747
:108960009B4B5A689F490A405A60596880225201BD
:108970000A435A60002086E7954B5A689A490A4094
:108980005A605968802292010A435A6000207AE7AF
:108990008F4B5A6895490A405A6059688022D20123
:1089A0000A435A6000206EE7894B5A6890490A4092
:1089B0005A605968802212020A435A60002062E716
:1089C000834B5A688B490A405A6059688022520288
:1089D0000A435A60002056E77D4B5A6886490A4090
:1089E0005A605968802292020A435A6000204AE77E
:1089F000774B5A6881490A405A6059688022D202EE
:108A00000A435A6000203EE7714B5A687C490A408D
:108A10005A605968802212030A435A60002032E7E4
:108A20006B4B5A6877490A405A6059688022520352
:108A30000A435A60002026E7654B5A6872490A408B
:108A40005A605968802292030A435A6000201AE74C
:108A50005F4B5A686D490A405A6059688022D203B8
:108A60000A435A6000200EE7594B5A6868490A4089
:108A70005A605968802212040A435A60002002E7B3
:108A8000534B5A6863490A405A605968802252041D
:108A90000A435A600020F6E64D4B5A685E490A4088
:108AA0005A605968802292040A435A600020EAE61C
:108AB000474B5A6859490A405A6059688022D20483
:108AC0000A435A600020DEE6414B5A6854490A4086
:108AD0005A605968802212050A435A600020D2E683
:108AE0003B4B5A684F490A405A60596880225205E8
:108AF0000A435A600020C6E6354B5A684A490A4084
:108B00005A605968802292050A435A600020BAE6EA
:108B10002F4B5A6845490A405A6059688022D2054D
:108B20000A435A600020AEE6294A53685B005B089E
:108B30005360516880231B060B4353600020A2E65C
:108B4000234B1A8901218A431A811A890A431A81FF
:108B5000002098E61E4B1A8902218A431A811A893D
:108B60000A431A8100208EE6194B1A8904218A4390
:108B70001A811A890A431A81002084E6144B1A8943
:108B800008218A431A811A890A431A8100207AE649
:108B90000F4B1A8910218A431A811A890A431A81B4
:108BA000002070E60A4B1A8920218A431A811A890B
:108BB0000A431A81002066E6054B1A8940218A4340
:108BC0001A811A890A431A8100205CE6DCFD001034
:108BD00000B00040FFFEFFFFFFFDFFFFFFFBFFFFB8
:108BE000FFF7FFFFFFEFFFFFFFDFFFFFFFBFFFFF0D
:108BF000FF7FFFFFFFFFFEFFFFFFFDFFFFFFFBFF0C
:108C0000FFFFF7FFFFFFEFFFFFFFDFFFFFFFBFFFEC
:108C1000FFFF7FFFFFFFFFFEFFFFFFFDFFFFFFFBEB
:108C2000FFFFFFF7FFFFFFEFFFFFFFDFFFFFFFBFCC
:108C30001D4B1A8980218A431A811A890A431A8195
:108C4000002020E6184B1A8918490A401A811A890F
:108C5000802149000A431A81002014E6124B1A8928
:108C600013490A401A811A89802189000A431A810E
:108C7000002008E60C4B1A890E490A401A811A890D
:108C80008021C9000A431A810020FCE5064B1A899D
:108C900009490A401A811A89802109010A431A8167
:108CA0000020F0E51720EEE500B00040FFFEFFFFDA
:108CB000FFFDFFFFFFFBFFFFFFF7FFFF8023DB044C
:108CC0009C466044800001607047000070B5214BF5
:108CD0001C6823681D7DEDB26A0610D51E21222274
:108CE000A1541A7E23318A431A762123E35C1B07A1
:108CF00003D52023E35C1B0704D423681B7CEB070C
:108D000004D470BD200023699847F6E723681B7CD4
:108D1000DBB262691370636901336361A38B013B4A
:108D20009BB2A383A38B9BB2002BEAD12133E35CDC
:108D30005B07E6D52023E35C5B07E2D50022222314
:108D4000E2542268137E01218B431376E3682000EE
:108D50009847D6E7DC1E011070B5224B1C682368CB
:108D60001D79EDB2EA0714D4EB0607D52123E35CA5
:108D7000DB0703D52023E35CDB0723D4AB0607D551
:108D80002123E35C9B0703D52023E35C9B0725D4C9
:108D900070BDA2691178C9B20132A2611970E38B6A
:108DA000013B9BB2E383E38B9BB2002BDCD12268B7
:108DB000137A01218B4313722268137A0F310B430C
:108DC0001372D1E700222223E2542268137A102181
:108DD0008B431372200063689847CFE7A368200095
:108DE0009847D5E7DC1E011070B5214B5C682368FD
:108DF0001D7DEDB26A0610D51E212222A1541A7ED5
:108E000023318A431A762123E35C1B0703D52023F1
:108E1000E35C1B0704D423681B7CEB0704D470BD00
:108E2000200023699847F6E723681B7CDBB2626960
:108E30001370636901336361A38B013B9BB2A3830E
:108E4000A38B9BB2002BEAD12133E35C5B07E6D511
:108E50002023E35C5B07E2D500222223E254226850
:108E6000137E01218B431376E36820009847D6E7F1
:108E7000DC1E011070B5224B5C6823681D79EDB2D1
:108E8000EA0714D4EB0607D52123E35CDB0703D5FF
:108E90002023E35CDB0723D4AB0607D52123E35C67
:108EA0009B0703D52023E35C9B0725D470BDA269F3
:108EB0001178C9B20132A2611970E38B013B9BB2F8
:108EC000E383E38B9BB2002BDCD12268137A012170
:108ED0008B4313722268137A0F310B431372D1E75D
:108EE00000222223E2542268137A10218B4313724A
:108EF000200063689847CFE7A36820009847D5E72C
:108F0000DC1E0110E1235B02036000230371437147
:108F10008371C371023383600322C2600132026134
:108F2000013242618361C3610362436270470000A2
:108F3000F8B5CE46474680B504001700016000230F
:108F400043608360C3600361436183610022838364
:108F5000C3832033C2540133C2540133C254534B30
:108F6000994237D0524B99424DD0FB79042290461A
:108F7000002B01D1023398463E00083600254D4BA8
:108F80009946318A01CEC0B2C8470135EDB2454598
:108F9000F7D323681A7DD20704D501211A7C1A7DE4
:108FA0000A42FBD1002120229954FB795A1E934199
:108FB0005B013A7979790A431343BA79022A6CD072
:108FC000D1B2022938D9032A6AD0042A38D10E2214
:108FD000134335E00920384DA8470A20A847092047
:108FE000364DA8470A20A847354B1C60354910204C
:108FF000354DA84735491120A847354B01221A6045
:1090000001321A60B1E70B202B4DA8470C20A8476E
:109010000B202A4DA8470C20A847294B5C602D49FE
:109020001220294DA8472C491320A847284B042279
:109030001A6004321A6098E7012A01D10222134310
:10904000202221688B543E68244B9847050031004C
:10905000234B984782B20004000C7043281A36094B
:10906000B04220D900230133DBB2801BB042FAD8D2
:10907000002128202568295401331B075B0FD200EB
:1090800013439BB22268938423681976236819726C
:1090900000200CBC90469946F8BD06221343CFE74A
:1090A0000A221343CCE70023E2E7C0460040004019
:1090B00000500040318300106588001009850010C1
:1090C000DC1E0110CD8C0010BD8C0010598D0010DD
:1090D00000E100E0E98D0010758E0010FD840010A5
:1090E00055DA00100268012013790342FCD0117098
:1090F0000020704702680120137D0342FCD0137CDE
:109100000B700020704710B51723002A01D11800FA
:1091100010BD0B33C45C1D3B052CF8D0828341612C
:1091200005221D33C2540368043A1A760023EEE781
:109130009300C31859602021012393401A00435C17
:1091400013434354704710B5212401228A40035D24
:1091500013430355012900D010BD0268137A1F3153
:109160000B431372F8E710B501228A402124035DF6
:1091700093430355012900D010BD0268137A1F31B3
:109180008B431372F8E70000F0B5C64600B50C003B
:10919000904600280FD1002A11DD8F18094E0A4D84
:1091A000306821002B6898470134BC42F8D1404612
:1091B00004BC9046F0BD01235B429846F7E7804629
:1091C000F5E7C046EC1E0110E41E0110F0B5C646DE
:1091D00000B50E0015000138022810D8002A11D061
:1091E00000240C4B98460C4F43461868315D3B6891
:1091F0009847002808DB0134A542F5D106E0012498
:10920000644203E0140001E001246442200004BC35
:109210009046F0BDEC1E0110E81E01100300064A46
:109220001268002A04D0044A1068C31813607047FB
:109230000249014A1160F6E71C0901103838011093
:1092400001204042704780239B014B600020704703
:1092500001207047002070470020704700207047B1
:10926000C078002800D0E22070470020704700003E
:1092700010B50078002800D110BD0448044B984771
:109280000448054B9847E220F6E7C0461405011054
:1092900009EC001018050110EDEA001010B50400EB
:1092A000C078002800D110BD0448054B9847A2782B
:1092B00021880448044B9847E220F4E71405011084
:1092C00009EC001004030110EDEA0010F8B50400E9
:1092D0001A4B9B2292009D180127002603E007707D
:1092E0007C33AB421FD018001A00563A11882288EE
:1092F0009142F5D11A78052AF1D0082AEFD0072A31
:109300000FD892000E498A5897461E700D4A12785F
:10931000002AE5D00B4A1278013AD2B209490A7004
:10932000DEE70670DCE70848084B98472288A178FA
:109330000748084B98470020F8BDC046661F01103B
:10934000ECFE0010742101101405011009EC00104E
:1093500050010110EDEA0010F8B506000188264B17
:10936000002404E00134E4B27C33052C2ED01A89A9
:109370008A42F7D11A005E321278062AF2D1B57805
:10938000002D26D11D481E4B98471E481E4B98475E
:10939000194963011A1B92008A1810005E300827D1
:1093A0000770F0781075B2781C1BA4000C19227697
:1093B00020E0124E3000124DA8471248124CA04730
:1093C0003000A8471148A047E22513E0B578002DEA
:1093D000EFD0094B6201111B890059180D760B0063
:1093E0005E3307221A700548054B98470848064B1C
:1093F0009847E2252800F8BD081F01101405011048
:1094000009EC001044020110EDEA0010680201109E
:109410003002011010B5174B1B78DBB2132B0CD99F
:109420001548164B98471648164B9847164B9847C1
:10943000E223002816D1180010BD0E4C2278D2B2BB
:1094400093009B18DB009B18104A9B1829220100EF
:1094500018000F4B9847237823780133DBB2237031
:109460000023E8E70448054B98470A48054B98470E
:10947000E223E0E72C1D01101405011009EC001097
:10948000C4040110EDEA001069BC0010EC210110C9
:10949000CBEA0010FC040110F8B50378002B0ED1C4
:1094A000244D0024461C244F102229003000B847C8
:1094B00000282ED00134E4B27C35052CF4D15E2393
:1094C0001E4AD35C002B0BD01D4A01231C001178CF
:1094D000002906D001337C32052BF7D10020F8BDDE
:1094E0000024164E67013D1BAD0075191222154967
:1094F0002800154B9847154A13780133DBB21370D7
:109500005E3502232B703C1BA40034190833A3746E
:10951000E4E70A4863011A1B9200821811005E31C9
:1095200002250D700A219174100012220549064B84
:109530009847D3E74E1F0110ADEA0010081F011035
:10954000E21F0110B4210110CBEA001074210110B8
:10955000F0B5DE464F464646C0B59AB00400867A5E
:10956000002E00D0C5E06A486A4FB8472379627977
:10957000A17960780290A0780190E0780090664828
:10958000664DA8476248B84721896548A847122216
:1095900021006448644B98470494072221006348E3
:1095A000634B9847002802D02378022B3ED0614BB2
:1095B0001B78DBB2042B00D98DE05F4B9946002568
:1095C0005B4B9B46EFB20595072204994846D84766
:1095D000002852D001357C239C46E144052DF1D171
:1095E0005E23554AD35C002B51D0544A01230127F6
:1095F0001D00117800294CD00137FFB201337C32B5
:10960000052FF5D1072221004848494B98470028EB
:1096100059D17B01DB1B9B00474AD31805229A7462
:10962000072200214148464B98476AE0502200211A
:1096300006A8434B9847434F002306AE1D00103544
:10964000ADB239001A00531C9BB20878B0540131F6
:109650001A00AB42F7D17C37502BEFD106AA21007C
:109660000520394B9847061E4BD02948294B98476F
:1096700036482A4B9847E22643E0059B5A01D21A06
:1096800092002D4B9B185E3302221A70BAE7002518
:1096900000276B019946581B8000274B9846404491
:1096A00012222100204B9847224A13780133DBB263
:1096B00013704B465D1BAD002B0043445E331A0014
:1096C000022313709EE77B01DB1B9B001A4AD31811
:1096D0000A229A74A4E70E480E4B9847154B197846
:1096E000C9B21B480D4B984720891321194B984745
:1096F00007E00748074B9847A17A1748074B984758
:10970000002630001AB01CBC90469946A346F0BD16
:109710001405011009EC001044FF0010EDEA0010E0
:1097200088FF0010B4210110CBEA001020090110BD
:10973000ADEA001074210110081F0110E21F011092
:10974000DDEA00104E1F0110B5BC0010A0FF001094
:10975000C4FF001089BC001000000110F0B5C6461F
:1097600000B505004088394B002404E00134E4B220
:109770007C33052C49D01A898242F7D11A005E3217
:109780001278032AF2D12E79002E41D13048314B84
:1097900098473148314B984729782C4F6201131B69
:1097A0009B00FB18197529791976131B9B00FB1870
:1097B0005E3305211970141BA40020003630C01937
:1097C000290022311022264B984698472000463027
:1097D000C019290032311722C0471A34E019A91DD7
:1097E0001C22C04700E00026300004BC9046F0BDBB
:1097F000174E3000174DA8471748184CA0473000A7
:10980000A8471848A047E226EEE72B79002BEFD0B7
:1098100063011B1B9B000D4CE4185E342378012B65
:10982000E1D90B480B4B98470F480C4B9847688879
:1098300013210E4B9847061ED6D00548054B984776
:109840000B48064B9847E226CEE7C046081F01109A
:109850001405011009EC001078030110EDEA001066
:10986000CBEA0010A40301103C03011089BC0010D6
:109870005C03011010B50088782301220121024CFD
:10988000A047002010BDC046A9BC0010F0B5DE46C0
:1098900057464E464546E0B585B0060009220021F0
:1098A00001A86F4B984734886E490A00002303E0F3
:1098B00001337C32052B20D01089A042F8D1100052
:1098C0005E3000780228F3D166485A01D51AAD00FF
:1098D00045195E3506222A70F93213405A01D21A10
:1098E00092008218127DD0070BD45A01D21A92002E
:1098F0005C4B9B185E3302221A70308800230024D0
:109900001BE0F0780028F0D05901C91A89001A31FB
:10991000544BC9183088544B984700284ED05348B0
:10992000534B98475348544B9847E22046E0013444
:10993000E4B201337C31052C10D01D000A8982422B
:10994000F5D10A005E321278022AF0D15B015D1B6C
:10995000AD00444B5B195E3301321A7001AB022239
:109960001A72F2789A7001225A7003321A70A04665
:1099700063011B1B9B003B4A9B5C022B25D001AB68
:1099800001229A71DA7101AB10225A711A714346A1
:109990005B0142469B1A9B00324AD3181B7E402B28
:1099A00018D06201121B920060322E4C12193088BE
:1099B000002301A9314CA047002844D105B03CBC8C
:1099C00090469946A246AB46F0BD01AB03229A7180
:1099D000DA71D8E767013F1BBB009B461D0060356D
:1099E0001300AD185A46683292469A44244B994661
:1099F0000F27C84738402870C8473840A874013539
:109A00005545F6D15F467037164BFF181C4B9A46EA
:109A10000F239946D0474B46184028700135BD4268
:109A2000F8D1174B98470F4A43465901CB1A9B0070
:109A3000D318703318804346C91A890052187A32F5
:109A400010231370ADE701AB00229A705A700748DB
:109A5000074B98470B48084B9847E220AEE7C046B3
:109A6000DDEA0010081F0110A1C10010140501104B
:109A700009EC00102C050110EDEA0010F5BF0010F4
:109A80001DEC001044050110F0B5DE4657464E4669
:109A90004546E0B587B0019000884D4B0022002478
:109AA00005E00134E4B201327C33052C0FD0198972
:109AB0008142F6D119005E3109780229F1D15301B2
:109AC0009D1AAD00424B5B195E3303221A7003AB43
:109AD00002221A72013A9A705A7000221A70DA70D1
:109AE000A04663011B1B9B00394A9B5C022B26D0BE
:109AF00003AB01229A71DA7103AB10225A711A7109
:109B000043465B0142469B1A9B00314AD3181B7E99
:109B1000402B19D06201121B920060322C4C12199A
:109B2000019B1888002303A92A4CA047002843D191
:109B300007B03CBC90469946A246AB46F0BD03AB8D
:109B400003229A71DA71D7E767013F1BBB009B467E
:109B50001D0060351300AD185A46683292469A448B
:109B60001D4E0F27B04738402870B0473840A874C2
:109B70000135AA45F6D15F467037154BFF18164BD5
:109B80009A460F239946D0474B4618402870013516
:109B9000BD42F8D1104B98470D4A43465901CB1AA4
:109BA0009B00D318703318804346C91A8900521895
:109BB0007A3210231370ADE703AB00229A705A700B
:109BC0000648074B98470748074B9847E220AFE7FE
:109BD000081F0110F5BF00101DEC00101405011046
:109BE00009EC00109C040110EDEA0010F0B585B0FE
:109BF0000500424B1A6802929A8802AB9A8001AC27
:109C00000422010020003E4B9847E378002B0BD044
:109C100080235B0001AA52889A4247D001AB9B780F
:109C2000012B63D0002057E03648374B9847374820
:109C3000374B98470027374CFEB21E20A047C3B2CF
:109C4000002B0CD01A00303A092A23D9052EF4D95A
:109C50002C482D4B984730482D4B98472CE0294FE6
:109C60003800294EB0472D48294CA0473800B0474E
:109C70002B48A047288813212A4B98470300E2204D
:109C8000002B29D01F48204B98472748204B984746
:109C9000E22021E06A4608215218D355FF231840DC
:109CA000224B98470137062FD2D0C5E71548164BEF
:109CB00098471F48164B9847002402AE1B4FA05DE3
:109CC000B8470134062CFAD101AB9978288802AA4A
:109CD000184B9847002801D105B0F0BD09480A4B40
:109CE000984715480A4B98470020F5E70548064B6A
:109CF00098471248064B98470020EDE728FF0010D0
:109D0000CBEA00101405011009EC0010D403011077
:109D1000EDEA00105DA3001088040110FC0301109F
:109D20000804011089BC00105C03011021EB001035
:109D30001C04011025C10010540401106C04011012
:109D4000F8B5060005882F4B0022002405E00134F9
:109D5000E4B201327C33052C19D010001989A942D4
:109D6000F5D119005E3109780129F0D9254A43015E
:109D7000181A800010185E300623037063011B1B45
:109D80009B00D2187032128873889A4215D01E4FE9
:109D900038001E4EB0471E481E4DA8473800B04739
:109DA0001D48A84763011C1BA400164B1C192089E1
:109DB00005211A4B9847E220F8BD6101091B890073
:109DC0007231104BC918301D0822154B98470028D6
:109DD000DDD16201131B9B0060330A495B18141B21
:109DE000A4000C19217D308801220E4CA0470028C8
:109DF000E2D00548054B98470B48064B9847002092
:109E0000DAE7C046081F01101405011009EC001024
:109E100080010110EDEA0010B801011089BC0010AA
:109E2000ADEA001019C200101002011030B5002A6E
:109E300043D0062943D88900254B5B589F46254CC3
:109E400005250AE0244C012507E0244C052504E003
:109E5000234C012501E0234C0525002813D123685C
:109E6000002B0BD0211D00230133DBB2AB4208D203
:109E70000C000431081F00680028F5D1226001237E
:109E800004E0002302E00023012801D0180030BDC7
:109E900023689A420BD0211D00230133DBB2AB4271
:109EA00009D20C000431081F00688242F5D100235A
:109EB00023600133EAE70023E8E70023E6E7002315
:109EC000E4E7094C0525C8E7084C0125C5E7C0466D
:109ED0000CFF0010F41E0110F01E0110782101107B
:109EE0002C2701108C210110A0210110E821011064
:109EF000F0B5DE4657464E464546E0B591B0050002
:109F000000247C4B1C60072200217B487B4EB0471D
:109F1000122200217A48B0477A4B1C70CD22920061
:109F200000217948B047794B1C70832292000021B0
:109F30007748B047774B9B468023DB009A461A0050
:109F400000215846B047744B994680235B019846E0
:109F50001A0000214846B047704F1C2200213800EB
:109F6000B0475B46BB605346FB604B463B61434694
:109F70007B616B4B1C605C609C60DC601C61694BAE
:109F80001C605C609C60DC601C61674B1C605C60FA
:109F90009C60DC601C61654B1C60654B1C60654B04
:109FA0001C605C609C60DC601C61634B1C60634CEB
:109FB0009B239B009846A044504F40267C220021C2
:109FC0002000B84723005E3300221A7026767C34C6
:109FD000A045F3D15A4B1A705A485B4B98475B48DF
:109FE0005B4B98474D485B4B9847002868D15A4ACD
:109FF00000210020594CA047594A02210020A047C7
:10A0000009215848584B9847002805D04D484E4BD9
:10A01000984756484E4B984704AB55490A00896803
:10A02000049191890832998092799A7126220021AF
:10A0300006A8324B9847002D4ED04248424B9847D5
:10A040002B796A79A9792878039068780290A878A2
:10A050000190E878009047483D4CA04706AC0223A9
:10A060002370454B63800722290007A8434B98477C
:10A070000023E37623776377A377E37723846384EE
:10A0800080239B00A38420003D4B9847002805D0E7
:10A090002C482D4B98473B482D4B984728003A4B6E
:10A0A0009847002805D02748274B98473748284B22
:10A0B000984711B03CBC90469946A246AB46F0BDCD
:10A0C000204E3000204DA8473148214CA047300099
:10A0D000A8473048A047FEE704A82F4B984704AD97
:10A0E0000028AAD01748184B98472C48184B984777
:10A0F00004ADA2E72809011020090110DDEA0010D3
:10A10000B42101102C1D0110EC210110E4210110DB
:10A11000202501102C1901102C090110C821011053
:10A120008C210110A0210110F41E0110E821011062
:10A13000F01E0110782101102C270110081F0110BA
:10A14000742101101405011009EC00102800011001
:10A15000EDEA0010A1B80010900201102D9E001031
:10A16000DC02011098000110B9B70010A400011022
:10A1700028FF0010D4000110983A0000CBEA00102C
:10A1800011B800100C01011055BA00103001011077
:10A190003C0001105C000110EDB70010BC00011084
:10A1A00010B582B001AC2000054B98470123237005
:10A1B0000023637021001620024B984702B010BDA7
:10A1C000DD800010ED80001010B50E4B1B78012BC8
:10A1D0000CD00D4B1B68002B07D00C4C20789847F7
:10A1E000012221000A480B4B984710BD0222054B63
:10A1F0001A70054B1B68002BF7D102210448064B4F
:10A200009847F2E72D1D0110381D0110301D011077
:10A2100030270110079100106791001070B50600FB
:10A220000D00034C29003000A0470028FAD170BD72
:10A23000F590001070B506000D00034C29003000A9
:10A24000A0470028FAD170BDE590001070B500213C
:10A250000020194B9847194C2000194B9847E123CF
:10A260005B0223600223A3600322E26001322261C9
:10A2700001326261A361E36123626362114D124B9B
:10A280001D60124A124B1A60124A134B1A602200C8
:10A2900012492800124B9847124E336898680021E3
:10A2A000114CA047336858680021A04702220F498B
:10A2B00028000F4B984770BD798400105427011077
:10A2C000058F001030270110EC1E011035A2001080
:10A2D000E81E01101DA20010E41E01100040004005
:10A2E000318F00109C08011095EC0010C9A10010DE
:10A2F00031910010F0B583B005000D4CA047A04788
:10A300000C4FB8470C4E0D4A0D4BB04700900191D1
:10A31000FA2080006843B84702000B0000980199BA
:10A32000B047084B9847084B186003B0F0BDC046D3
:10A33000FD8400103DE70010A9DB0010C7AEFE1938
:10A34000EFD8093F6DDB0010341D0110024B1A6875
:10A35000501E18607047C046341D011070B50400CF
:10A360000122114B1A70114B1B68002B17D02000D3
:10A370000F4B98470F4900230B7001220E480F4BDB
:10A380009847094C0E4D2378022B02D0A84700288D
:10A39000F9D10022044B1A70064B187870BD0221C7
:10A3A0000548084B9847E2E72D1D0110381D0110A4
:10A3B000F5A20010301D0110302701100791001088
:10A3C0004DA3001047910010024B1A6802601860FC
:10A3D0007047C0463C1D011030B50B4B1C68002C6B
:10A3E00011D025681D6000232360A160E280A08059
:10A3F000064B1A68002A02D11C6004E01A00136898
:10A40000002BFBD1146030BD3C1D0110401D01101C
:10A4100070B50023064A1360064A1360064C2600F6
:10A420007836064D2000A8470C34B442FAD170BDEE
:10A430003C1D0110401D0110441D0110C9A3001056
:10A4400070B50400134B1D68134B1B6898470C2C08
:10A4500019D00C3CE388052B15D0EB0714D40F4B17
:10A460001B68022098470E4B1B6898470D4C032031
:10A47000236898470028FAD10B4B1B680230984795
:10A4800001220A4B1A6070BD094B1868094B1B6802
:10A490009847F8E7ECB10040E01D0110F81D0110ED
:10A4A000F01D0110FC1D0110F41D011020B0004032
:10A4B000D01D0110E81D011010B5064B064A1968A1
:10A4C00011605A68054B1A60054B1B68002B00D0C1
:10A4D000984710BD7C2701100CB0004010B0004020
:10A4E000582A011070B5322200210D480D4B9847B3
:10A4F00000210B48012502244A0011548218537888
:10A500002B43DBB2A343537001311929F4D1044B1F
:10A510005A7818398A435A70DA788A43DA7070BDEB
:10A5200098270110DDEA0010064A136806490B401F
:10A530001360064A136006490B68064803400B6027
:10A54000536070470CB00040D30FFEFF7C27011012
:10A5500010B00040C0E7FFFFF0B5D6464F46464674
:10A56000C0B54F4B1B78002B04D04D4B1B78012BF3
:10A5700000D190E04B4B98474B4B984700239846AF
:10A580004A4B42461A604A4C80238022120492466B
:10A59000E250802252049146E250464D464B2B60D9
:10A5A000464B474A13604749474A1160474A11687A
:10A5B000474A1160474A1168474A11604749484A6B
:10A5C00011604849484A1160484F494A3A60494930
:10A5D000494A116049494A4A11604A4E4A4A326022
:10A5E0004A494B4A11604B494B4A11604B494C4A0E
:10A5F00011604C494C4A11604C494D4A1160282069
:10A6000098474C4928202B6898472B684A492720AF
:10A6100098474A4B1A684A4B1A604A4A4A4B1A6092
:10A620004A4A4B4B1A604B4A4B4B1A604B4A4C4BB5
:10A630001A604C4A4C4B1A604C4A4D4B1A604D4ABA
:10A640004D4B1A60A022920000214C484C4B984779
:10A65000802292004B4B1A804B4B98475346236005
:10A660004B462360494B42461A603B68484A1A6091
:10A670003368484A1A600020474CA0470120A04791
:10A680000220A0470122064B1A7000201CBC9046F5
:10A690009946A246F0BD0122014B1A700120F5E750
:10A6A000EC1D0110E5A4001029A50010C41D011027
:10A6B00000E100E04C2A0110D7070000BD070000B0
:10A6C0008827011051BC0100502A0110BC00041061
:10A6D000CC1D0110B8000410C81D01109FB9010065
:10A6E00084270110DBB9010090270110602A0110B6
:10A6F0003C000410C01F041094270110C41F041054
:10A700005C2A0110542A0110D41F0410D81F041011
:10A710008C270110E9CB0100F81D01108FCD01003D
:10A72000F41D0110A3CE0100F01D0110CFCB0100DC
:10A73000FC1D01107DAB00100DAB0010E4000410F7
:10A74000E01D0110E99F0100D81D0110DDDB0100B3
:10A75000E81D01105BDC0100E41D0110EC05041094
:10A76000D01D0110E3D50100C01D0110200C041004
:10A77000BC1D0110099F0100D41D0110CC27011040
:10A78000DDEA0010642A011011A40010582A0110FB
:10A79000B9A40010DDAB0010C1AB0010054B1A7856
:10A7A0000523012A01D018007047034B18600023CD
:10A7B000F9E7C046EC1D0110C41D011070B504007E
:10A7C0000E4B1B68002B02D0408898476080E388BE
:10A7D000A288618820880A4D2D68A8470500E28874
:10A7E000002A07D021000831064B98472800064B65
:10A7F000984770BD044B9847FBE7C046CC1D01103D
:10A80000D81D0110CBEA001041A40010F0B5DE46BF
:10A8100057464E464546E0B587B0441E002399464C
:10A82000E31C04D900240025834F844E66E00D22EA
:10A83000002102A8824B9847332302AA1370303BB1
:10A84000537093700233137193711472230A53720D
:10A85000230C9372240ED472012313730D21100064
:10A86000784B984701239946DCE7774B1C68A3880F
:10A870009A46CD239B009A4500D1CFE023899B4681
:10A88000638998464B46002B40D1A023DB009A45B4
:10A890004FD06E4B1B68002B72D06B4B1A6893889D
:10A8A000CD2189008B4200D1BEE0694C694D256005
:10A8B0002B701B0A6B701089674B1B6898472871B7
:10A8C000000A68712068604B1A68D28842801D684F
:10A8D0006B89C380083020606A89002A4BD169895E
:10A8E00008315A4B1B685B48984700240325564B98
:10A8F00018685A4B1B689847002C43D05249386857
:10A90000336898470028B0D00725F5E70D220021CD
:10A9100002A84B4B9847332302AA1370303B537065
:10A9200093700233137193710D211000454B9847BA
:10A93000ABE74B4B1B884344A0229200934202DDBD
:10A94000803A474B1A80464B9A461D88414BED187A
:10A9500021000C3142462800424B984742462900CC
:10A960005846414B984753461B88434452461380F0
:10A9700000240225BBE729000C313A4B9847AEE78B
:10A980000024B4E74B46002B07D1280007B03CBC9D
:10A9900090469946A246AB46F0BD274B1E68002E56
:10A9A00013D0346A14239C46B44463466046009333
:10A9B0002E4B1B689847002C2BD00027CD239B00E3
:10A9C0009846264B9A46200014E000231C6A002C6F
:10A9D000DBD014230093254B1B6814209847ECE729
:10A9E000002F0ED08368BB6053461B689847B86839
:10A9F00000280ED003689B884345F1D0070080688B
:10AA0000F6E783683362154B1B6801939847306AF9
:10AA1000EEE7174B1B6800989847B6E70B4B1B688F
:10AA20000024002B00D162E74B460124002B00D10B
:10AA30005DE70024D0255AE7BC1D0110C01D0110A0
:10AA4000DDEA0010BDA70010001E0110C41D01109A
:10AA5000DC1D0110CC270110C81D0110D41D0110F0
:10AA6000642A0110CBEA0010D9A30010E41D0110E4
:10AA7000E81D011010B5034B1B68802000029847A9
:10AA8000082010BD8427011010B5034B1B688020DF
:10AA9000C0019847002010BD9027011030B5184B19
:10AAA0001A8F92B2198D8020000201431985180077
:10AAB000144D0124002108E00B0022009A4093B2BB
:10AAC0000387028FD205D20D13D0D205D20D0BD041
:10AAD000D3B25A421A40012AEED00B005208013379
:10AAE000DBB2012AFAD1E8E7038F2B439BB203873D
:10AAF000E7E780214900C0235B00034AD15030BD05
:10AB0000001001400080FFFF00E100E030B5184B6D
:10AB10001A8F92B2198D8020000201431985180006
:10AB2000144D0124002108E00B0022009A4093B24A
:10AB30000387028FD205D20D13D0D205D20D0BD0D0
:10AB4000D3B25A421A40012AEED00B005208013308
:10AB5000DBB2012AFAD1E8E7038F2B439BB20387CC
:10AB6000E7E78021C0235B00034AD15030BDC046D7
:10AB7000000001400080FFFF00E100E010B50C4B39
:10AB80001B8F5B0B02D10B4B984710BD0A4B1B6808
:10AB90009847074A138F118F5B0B5B030B43138797
:10ABA00080214900C0235B00044AD150EDE7C04634
:10ABB000001001409DAA0010502A011000E100E0A1
:10ABC0000323022801D91800704780000022024B9D
:10ABD000C2500023F7E7C046682A011010B50400F0
:10ABE0000378012B06D06378012B0DD0A378012BBD
:10ABF00014D010BD0E4B1B68002B00D09847FF23CC
:10AC000022689A432260EEE7094B5B68002B00D074
:10AC10009847084B226813402360E7E7044B9B6882
:10AC2000002B00D09847044B226813402360E0E7D4
:10AC3000682A0110FF00FFFFFFFF00FF70B584B01E
:10AC4000974B9847974B9847974B9847974E3000AC
:10AC5000974DA8479748984CA0470020974B984796
:10AC6000974B98470222974B1A603000A8479648A6
:10AC7000A0470022954B1A70954B1C7823000B338C
:10AC80001A2B24DD89488A4B984792488A4B98476B
:10AC90008E4B1B78002B44D18D4B1C78A31C1A2B98
:10ACA0002DDD8248824B98478B48834B9847874BD2
:10ACB0001B78002B64D1864B1C78A31C1A2B4DDD0E
:10ACC0007A487B4B984785487B4B984760E0844A9D
:10ACD0000C231355631CDBB20921D154A01CC0B254
:10ACE00080180B227F49804B98470D34784B1C709D
:10ACF0006E486F4B98477D486F4B9847C8E7784A36
:10AD000003231355631CDBB21921D154A01CC0B21C
:10AD1000801802227649744B984704346C4B1C709F
:10AD200015E0744B1C78A31C1A2BBADC724A03235F
:10AD30001355631CDBB21921D154A01CC0B280187A
:10AD400002226B49684B984704346A4B1C70574881
:10AD5000574B98476948584B9847A8E7604A0321E2
:10AD60001155631CDBB2D154A01CC0B28018022262
:10AD70005F4904315C4B98470434554B1C7001E02B
:10AD8000012B3BD049484A4B98475D484A4B98476E
:10AD90004C4B1B68022B49D04448454B9847022135
:10ADA0005848454B9847534B1B78494A1178524AAB
:10ADB0004B48554CA047002861D13C483C4B984734
:10ADC00052483D4B98473F4B1868C0B20022029250
:10ADD0004F4B0193C823DB000093130003214D4C1C
:10ADE000A047041E54D13148314B98474A48324B52
:10ADF000984700211620494B984746E03D4B1C7868
:10AE0000A31C1A2B00DD5BE73B4A03211155631C91
:10AE1000DBB2D154A01CC0B28018022234490431E4
:10AE2000314B98470434334B1C70ABE70122274B5E
:10AE30001A70304B1C78230008331A2B06DD1B4890
:10AE40001B4B984736481C4B9847ACE72A4A0923C6
:10AE50001355631CDBB2FF21D154A01CC0B2801873
:10AE6000082223498918204B98470A34214B1C702B
:10AE70000E480F4B98472B480F4B984793E70B48CA
:10AE80000B4B984728480C4B9847002004B070BDE6
:10AE90000648074B984721002448074B9847F4E79A
:10AEA00059A5001075AA00104DA20010140501103C
:10AEB00009EC001084050110EDEA0010F19E00106D
:10AEC000A1A1001090080110AC050110041E011092
:10AED000742A011090060110C4060110E00601104A
:10AEE000982A0110DC050110CBEA0010EC050110D6
:10AEF00070050110942A0110782A0110B40601107F
:10AF00001007011034070110A9BA0010380601100B
:10AF10008F0200002DBB001078060110A5820010E2
:10AF20005C070110000601101806011058060110F8
:10AF300070B5124D2C68002C14D02668E2602E608B
:10AF400000250F4A238113682560A080E180AB4271
:10AF500001D1146011E01A68002A01D0131CFAE72D
:10AF60001C600AE0C4B2002C07D1064CE26001224A
:10AF70002381054BA080E1801A7070BD201E011056
:10AF80001C1E0110081E0110181E011010B5084BE0
:10AF9000000900011A680818814203D00A600A1CDF
:10AFA0001031F9E71A600022024B1A6010BDC0464A
:10AFB000201E01101C1E011038B51B4C031C2588D7
:10AFC000081C211C9D4207D1A588854204D101237C
:10AFD0005B422380A26009E04C889C420AD18C88A5
:10AFE000844207D101235B424B808A600F4B984714
:10AFF000012017E00E498B420ED00E498B4207D03C
:10B000000D4900208B420DD1101C0C4B9847EFE7E7
:10B01000111C0B4B002202E0111C0022094B984727
:10B020004342584138BDC046B42A01103DC3001008
:10B03000130E0000150E0000010E0000ADC600103A
:10B040006DC8001045C900100023F0B587B0049208
:10B050000370049B0390013B0D1C0593033302D83E
:10B060000498AE4B9847059BAD4C033302D900239F
:10B07000029315E0002302932368002B13D1029B57
:10B08000D02B00D1DAE20498A64B98470290022810
:10B09000F2D13FE00498A34B98470290022839D0A0
:10B0A0002368002BF6D0029BD02B00D1C6E2029B76
:10B0B000033B5A1E9341029A5B421A402368029254
:10B0C000002B00D1C2E21A68DE682260DA880192A1
:10B0D000954A9C88116813601960944B1B78012B6A
:10B0E0000FD1934B924A9888D988D2681B89914F87
:10B0F000B8471022904B8E480021984700238B4A76
:10B100001370029B002B14D18C4B9C4209D08C4BAA
:10B110009C4227D13A23039A1370002302931D1CEB
:10B1200007E0019BA34200D08AE23823039A137000
:10B130002E60039B1B783B2B01D1824B9847039BCE
:10B140001B783B2B03D0059B033304D983E2029B7E
:10B15000002B88D0F7E7029BD02B00D17BE27A4B03
:10B16000984778E2019BBB2B25D1BB2C23D16B46A2
:10B170001B89AB80B3787278F0781B021343717926
:10B180003279A87071482B80834206D8704A934266
:10B190000BD2704A934208D009E06F48834206D12F
:10B1A0000B021343AB80372302E0362300E0002379
:10B1B000039A1370BDE7694B9C4200D144E165D806
:10B1C000674B9C4200D1D5E12FD8664B9C4200D101
:10B1D000E0E113D8644B9C4200D1A3E104D83826A7
:10B1E000B44200D125E217E1604B9C4200D19FE1BF
:10B1F000FE33FF339C4200D1D3E10DE15C4B9C4216
:10B2000000D1A9E108D85B4B9C4200D196E15A4B92
:10B210009C4200D199E1FFE0584B9C4200D1A2E151
:10B22000574B9C4200D1D4E1F6E0564B9C4200D1F2
:10B23000C8E112D8544B9C4200D1D1E104D8534B01
:10B240009C4200D19BE1E7E0514B9C4200D1ADE133
:10B25000504B9C4200D1B0E1DEE04F4B9C4200D10C
:10B26000E0E009D8083B9C4200D1D7E04B4B39269F
:10B270009C4200D1DDE1CFE0D1231B019C4200D1F3
:10B28000D6E0474B9C4200D1D8E0C5E0454B9C42FC
:10B2900000D117E12ED8444B9C4200D13DE112D899
:10B2A000424B9C4200D1E8E004D8033B9C4200D1D1
:10B2B000D0E0B1E03E4B9C4200D1D0E03D4B9C42FF
:10B2C00000D1F9E0A8E03C4B9C4200D1DBE008D87B
:10B2D0003A4B9C4200D11BE1394B9C4200D1D8E053
:10B2E0009AE0384B9C4200D1D8E0374B9C4200D1C9
:10B2F000DBE091E0354B9C4200D1F7E076D8344B4F
:10B300009C4200D1F8E069D8324B9C4200D1E0E089
:10B31000314B9C4200D1A9E07EE0C04675C30010CD
:10B320001C1E01100DA80010201E0110181E011077
:10B33000081E011031AF0010DDEA0010FFFF000011
:10B34000FEFF000089AA001077C300101E20000035
:10B350001D200000030C00001F2000001C0D000039
:10B360000C0C0000020C0000020A0000030A00009E
:10B37000060C0000040C0000050C0000070C000087
:10B38000090C0000170C0000120C00000D0C00004E
:10B39000130C0000150C0000080D0000010D00004A
:10B3A000150D00001B0E00000F0E0000030E000024
:10B3B000060E00000A0E0000150E0000110E00001F
:10B3C000130E0000170E0000190E0000270E0000DB
:10B3D000210E00001C0E00001D0E00009F4B9C4221
:10B3E0007ED09F4B9C4200D18CE015E09D4B9C424F
:10B3F00000D10AE108D89C4B9C4200D1F7E09B4B5E
:10B400009C4200D1FAE007E0994B9C4200D103E155
:10B41000984B9C4200D106E100260AE1301C291C11
:10B42000954B14E0301C291C944B9847042600E1EE
:10B43000301C291C924B98470126FAE0301C291C2D
:10B44000904B98470F26F4E0301C291C8E4B9847F0
:10B45000061CEEE00198311C2A1C8C4B17E0311CB5
:10B4600001982A1C8A4B98471126E2E0311C01986A
:10B470002A1C884B98471226DBE0301C291C864B7F
:10B4800098470626D5E0311C2A1C0198834B984723
:10B49000DEE70198311C2A1C814BF8E7311C01982A
:10B4A0002A1C804B98470D26C3E0311C01982A1CAA
:10B4B0007D4B98470E26BCE00198311C2A1C7B4B23
:10B4C000984784E0311C01982A1C794B98470B2639
:10B4D000AFE0311C01982A1C764B98471026A8E053
:10B4E000301C291C744B98472826A2E0301C291CCC
:10B4F000724B984729269CE0301C291C704B9847BA
:10B50000272696E0301C291C6E4B98472A2690E08F
:10B510000198311C2A1C6C4BB9E70198311C2A1C7C
:10B520006A4BB4E7301C291C694B98472B2680E0F6
:10B53000301C291C674B98472C267AE0311C019857
:10B540002A1C654B9847132673E0311C01982A1C6E
:10B55000624B984714266CE0311C01982A1C604B02
:10B560009847152665E0311C01982A1C5D4B9847C9
:10B5700016265EE00198311C2A1C5B4B87E7311CC4
:10B5800001982A1C584B9847A988061C574B2888B5
:10B5900098474EE0311C01982A1C554B98472326AA
:10B5A00047E00198311C2A1C524B70E7019B301C6C
:10B5B0001F0A2F80291C504B49E70198311C2A1C77
:10B5C0004E4B64E7301C291C019A4D4B98473B2693
:10B5D0002FE0311C01982A1C4A4B9847182628E076
:10B5E000311C01982A1C484B9847202621E0311C29
:10B5F00001982A1C454B984733261AE0311C0198C4
:10B600002A1C434B9847302613E0311C01982A1C12
:10B61000404B984734260CE0311C01982A1C3E4BC5
:10B620009847352605E0311C01982A1C3B4B98476A
:10B630003226039B1E70002302937AE5D023FBE79A
:10B64000019B029EBB2B00D0E6E6F2E7029B002B9B
:10B6500000D06EE5E0E6029807B0F0BD220E0000D3
:10B66000250E0000051B0000011B0000031B00004D
:10B67000061B0000081B000061D1001045D100101E
:10B68000E1D30010D1D40010F5D4001019C500107A
:10B6900059CD0010D5CD0010D1C700106DC80010D5
:10B6A00045C900108DCB00102DCC0010E5CC00104A
:10B6B0000DCD001023CD0010EDCD00101BCE0010DD
:10B6C00031CE00105BCE001089CC0010B3CC00103E
:10B6D00099BF0010C5BF00109DD60010D9D600102C
:10B6E00021D7001065D7001099D700105DD6001043
:10B6F00065D80010EDD70010F1BE00105DBF00103E
:10B7000021BF001075D80010B5D8001001DA001064
:10B710000BDA001011DA001017DA001023DA00102B
:10B72000F7B50E4900240B680F1C1E1C0C4A156847
:10B730000192002B0ED09A881968824207D1002C02
:10B7400001D0216000E00E1C1D601D1C231C1C1C70
:10B750000B1CEEE7019B3E601D60F7BD1C1E011037
:10B76000201E0110F7B5124A0090136811481F1CE3
:10B770000021844604680192002B14D0D888009AD6
:10B780001D68060A96420BD1FD2606400C2E07D1F5
:10B79000002901D00D6000E02F1C1C601C1C0B1C3C
:10B7A000191C2B1CE8E7019B1F6063461C60F7BD5A
:10B7B0001C1E0110201E011030B5CF23002810D010
:10B7C0004A1E1F2A0DD8084A131CAA3319800023C9
:10B7D0001C1CC55CAC3401331555DCB28C42F7D36C
:10B7E0000023181C30BDC046522B011010B5041C9C
:10B7F000CF20002C06D0044BCE38211C9847034B99
:10B800001B79237010BDC046F5CF0010522B0110DC
:10B81000F0B5067989B0CF25032E38D803781135D5
:10B820000F2B34D88023878C113D9B009F422ED84C
:10B83000C57F837FAD015B011D43C37E1D43437FF5
:10B840001B011D43037F9B001D43124BEDB21E7174
:10B850000379023B012B01D802230371041C231C32
:10B860000B33618807932379007800930195258C29
:10B87000621D0295658C079B03950497064DA847AA
:10B880002671051C211C03482622044B9847281CBE
:10B8900009B0F0BD522B0110EDCE0010CBEA001024
:10B8A000F0B587B003AF54490B22544B041C381C2D
:10B8B00098470522524B40261A800023514A1360B4
:10B8C000514A1370514A1370514B9847514B984746
:10B8D000514B9847514B9847002C00D189E0A36801
:10B8E000002B00D185E02369002B00D181E0206886
:10B8F000002802D16368002B7BD1494B61689847CF
:10B90000484B9847012801D9E22672E04648474B48
:10B9100098470028F8D1201C454B9847E068A1685B
:10B92000444B98476B460122DC1C201C01A9524263
:10B93000414B9847002802D12378392BF2D13F4B55
:10B940009847061E55D1031C01213D4A49429A18C9
:10B9500012335181902BF7D13A4C813B23703A4BF3
:10B960003A4A6380002323710133581E19010143B1
:10B97000023311700132212BF7D1E033FF33A3845E
:10B98000231C002573331D70231C72331D70231C70
:10B9900076331D70231CCC331D80221CA023D03293
:10B9A0005B001380221CCE321380231CD2331D80F7
:10B9B000FA22231C5200D4331A80231CD6331D7064
:10B9C000201C234BE57625776577A577E5772584D9
:10B9D00065849847231C072274331A70231C043291
:10B9E000AA331A802B1C7A5DAC330135E2540B2D3F
:10B9F000F8D1301C07B0F0BD7C070110CBEA001075
:10BA0000C02A0110CC1E01102C1E01109408011038
:10BA1000C5D80010F1BC00106DBD00108DBF001026
:10BA2000A9BD001059A500104DC200109DA700101F
:10BA3000F5C200108DAF001049B000107DCE00108F
:10BA4000C22A0110522B0110983A00005D2B011000
:10BA500011B8001038B5451C031CCF20002D18D09C
:10BA60001A78032A15D8012A02D15A78002A10D050
:10BA70001C1C291C0622074B0748984723780748B7
:10BA80000371074B98472378002B02D1281C054BE4
:10BA9000984738BDCBEA0010572B0110522B0110EC
:10BAA00011B8001079C30010F8B584460F1C161C9D
:10BAB0001C1C002802D1E220002A2BD0CF201F2FEF
:10BAC00028D81F2C26D86346002B0ED01248134DC1
:10BAD000002F04D1391C1F22114B984703E0614607
:10BAE0003A1C104B984772352F70301E12D00B4DF8
:10BAF0000D48002C07D1211C1F22094B7335984794
:10BB00002C70201C06E0311C221C064B984700209C
:10BB100073352C70F8BDC046862B0110522B0110D6
:10BB2000DDEA0010CBEA0010A52B0110F0B591B0B2
:10BB30001F1C16AB1D8817AB1B880D910E9318ABFD
:10BB40001B78041C0F93424B161C73331B78CF20B9
:10BB50000C93012C03D10E9B002B76D124E0042CF6
:10BB600073D88023DB019D426FD8002C02D11F2D9A
:10BB70006BD903E09F2D01D8012C66D1002F09D08D
:10BB80000D9BCF20013B012B5FD9012C02D1002D51
:10BB900000D120352F4B9847011C002E43D033781D
:10BBA000601E002B09D13BE08023DB019D424CD875
:10BBB000002E4AD0002FE3D12BE0012303283AD9ED
:10BBC0000D20721C02E00E20321EFAD1204C74347B
:10BBD00026780724002E00D0341C00920D9A03947E
:10BBE00004921B4A019502950597723212780E9CB9
:10BBF0000692194A07920C9A0892184A09926422EE
:10BC0000624392B20A920F9A154C0B92154AA047C2
:10BC10001BE0002DBED10F4B98472025011CBEE72D
:10BC20000328CDD806E0601E032803D9331C0D205D
:10BC3000321CCBE7002301F0F9FEC60604020F20F8
:10BC4000C2E700220C920C20BEE711B0F0BDC04646
:10BC5000522B0110C9D30010862B0110A52B011007
:10BC6000A9D20010983A000010B5054B9847041E61
:10BC700003D1D120034B00019847201C10BDC046C2
:10BC8000D5D0001021B7001038B5041C044B081C97
:10BC9000211C9847051C034B201C9847281C38BDC5
:10BCA0008DC7001065B7001010B5014CA04710BD3E
:10BCB0003DCC001010B5CF2300280AD0002908D0B1
:10BCC000002A06D00C78022C03D1034B013198478F
:10BCD0000023181C10BDC04669D40010831EDBB2BF
:10BCE00003200E2B01D8014AD05C70478707011052
:10BCF0000022014B1A807047241E011070B5051CEC
:10BD000000240C4B19680C4B1E688C4210DC0C2074
:10BD10006318DA0FD318021C5B105A43B01802885C
:10BD2000AA4201D2591EF0E7AA4202D95C1CECE7F4
:10BD3000002070BD381E0110301E011037B5094BB0
:10BD4000051C081C0C1C9847002809D08268002A92
:10BD500006D08388291C0092201C0022024CA04798
:10BD60003EBDC046FDBC001065D500100023074A4B
:10BD70001370074A1360074A1360074A1360074AA3
:10BD80001360074A1360074A136070472C1E0110A6
:10BD90003C1E0110381E0110281E0110341E011017
:10BDA000301E0110401E01100A4B0B4A18604B0850
:10BDB00013600A4AC3181360094A41181360032329
:10BDC000002203319943074B04391960064B1A606E
:10BDD0007047C046401E01103C1E0110281E011075
:10BDE000341E0110301E0110381E011070B50B4BAF
:10BDF000061C0C1C151C9847002808D080680028D9
:10BE000005D0211C2A1C064B9847002004E0301C5A
:10BE1000291C221C034B984770BDC046FDBC001076
:10BE2000CBEA0010D9D8001070B50C4B061C0C1CC6
:10BE3000151C984700280BD08368002B08D08388F6
:10BE40002B8082888168064B201C9847002004E0E4
:10BE5000301C291C221C034B984770BDFDBC0010F0
:10BE6000CBEA001065D90010F0B585B0041C019133
:10BE7000002928D14388271C0093181C164B98478B
:10BE80000837002809D08068002806D0A388E288F7
:10BE9000C018391C114B984715E002AB9E1D0023BA
:10BEA0000F4D33802968321C0E4B009898472B6841
:10BEB000A088E2881818391C084B98476088328897
:10BEC0002968094B984760882188019A074B984751
:10BED000002005B0F0BDC046FDBC0010CBEA00104C
:10BEE0009808011029BE0010EDBD0010D1D500103A
:10BEF00038B50C1C074B98476588074B281C98479A
:10BF000083782620DB0704D42088291C034B98471C
:10BF10003B2038BD15D50010FDBC00103DBD001004
:10BF200038B50D1C0A4B141C98472D88094B281C4A
:10BF30009847220A031C084C91B2002803D082883B
:10BF40000023281C01E0281C0122A0473B2038BD0B
:10BF500059D50010FDBC001015D6001010B5141CEA
:10BF6000074B9847074B6088984702238178222027
:10BF7000194003D1201C044B98471F2010BDC04618
:10BF800021D50010FDBC001069BE00100A22014B33
:10BF90001A7070479408011010B502780A708378FF
:10BFA00044781B0223434B800379C0781B02034370
:10BFB0008B80002A03D1024A13780133137010BD1D
:10BFC0009408011008B5031C42780078120202435D
:10BFD0000A80DA789878120202434A805A791879EE
:10BFE000120202438A80881D991D014B984708BDA3
:10BFF000CBEA0010F0B50C1C1F218BB0079302ABED
:10C00000C9180F230B70404B051C161C9847071CC2
:10C010000120072F75D8002C13D112235F433B4B0F
:10C02000FB5C834201D0CF206BE004950094019427
:10C0300002940394201C211C221C231C344DA8476D
:10C040005EE02279062AEED96379102BEBD89A426A
:10C05000E9D8237A042BE6D8A379072BE3D8E37930
:10C06000072BE0D8A378002B06D0002EDBD0294880
:10C07000311C1C22284B9847079B002B05D02748D2
:10C08000191C9A301022244B98476378A2789B00A1
:10C090001343122257431D4ADBB2BA5C002A16D161
:10C0A000A079420702D5079A002ABCD0C20701D561
:10C0B000002EB8D066792178E27800960190E07978
:10C0C0000290207A164C0390281CA04718E0012A01
:10C0D000A9D1E079420702D5079A002AA3D0C20766
:10C0E00001D5002E9FD066792178E2780096A67956
:10C0F00002900196207A04950390054C0120A047F8
:10C1000000200BB0F0BDC046B5C40010C22A01101B
:10C1100025CA0010D02B0110CBEA0010522B0110C1
:10C1200005C80010F0B585B0051C0C1C161C0021BC
:10C1300068461022184B98470121002E01D1311C6E
:10C140006E46002C16D10127231C701D013E02787B
:10C150000138303A7A439B180A225743B042F6D14D
:10C160006A46684613701A0A42701A0C1B0E8270D7
:10C17000C37009E0CF20012C0CD100236846F25C8B
:10C18000C2540133102BF9D104206A462B1C034CF6
:10C19000A047002005B0F0BDDDEA0010A1CA0010E4
:10C1A000F7B5CF2300292BD0052A29D801273D1C1C
:10C1B00033249540254223D08C7E073C092C1FD880
:10C1C000104B0C1C0021151C061C98473B1C072813
:10C1D00016D8122358430C4BC75CE023002F0FD115
:10C1E000211C1C22094B0A489847231CA17E228A45
:10C1F000123300910195211C301C064CA0473B1CBA
:10C20000181CFEBDB5C40010C22A0110CBEA0010F4
:10C21000D02B0110F1CA001073B5CF24002B11D020
:10C22000002A0AD005290DD8012533268D40354234
:10C2300008D09D7E073D092D04D89C7E0094024CB9
:10C24000A0470024201C76BDADCB0010F7B5838835
:10C25000011C0193C5880688002D0FD1191C301CC4
:10C26000194B2A1C9847031E05D1301C01991A1C32
:10C27000164CA04727E0164B984724E0154C164A69
:10C2800023681268EB18934201D900232360134FEF
:10C2900022683B68083198182A1C114B98473B6864
:10C2A0002268301C9A180199074B98470028E2D160
:10C2B00023683A68301CD21801992B1C034EB047F2
:10C2C0002368ED182560F7BDB9AF001031AF00103D
:10C2D00089AA00102C2C0110481E0110441E0110C8
:10C2E000CBEA001008B5024B9847002008BDC046B5
:10C2F000BDA70010802210B50021041C9200084B3D
:10C30000084898470022084B1A60084A084B1A60F0
:10C31000084B22691A606269074B1A6010BDC0465B
:10C32000DDEA0010302E01102C2C0110302C0110F1
:10C3300098080110441E0110481E01100122014BF3
:10C340001A6070474C1E011010B5041C074B1A6888
:10C35000012A03D0064B00209847F7E71968012906
:10C3600002D100221A6000E0227010BD4C1E0110A4
:10C370000DA8001070477047F7B56B46DE1D00230F
:10C3800033700F23134C032723700023E370124BE9
:10C39000011C1A881B8822711B0A062263710F4830
:10C3A0000F4B6770A77098470E4D0F4B0E212B80D7
:10C3B0000623A3710023201CE3710C4BAF80984728
:10C3C000301C0B4B98473378E220002B01D1AB682F
:10C3D0001878FEBD302E0110C02A0110382E011031
:10C3E000CBEA0010B42A011029030000E5C20010B6
:10C3F00049C3001038B50B23274C237003336370F7
:10C400002933A370254BE1701A881B8822711B0AFF
:10C41000637100232072637201282BD098421BD0D5
:10C4200002282FD11E4B12211A1CCE321288A27262
:10C43000120AE2721A1CD03212882273120A627334
:10C440001A1CD2321288D433A273120AE2731B88E8
:10C4500023741B0A637416E0114B1249AA331D881A
:10C4600011482B0AA572E3722A1C104B0C35984711
:10C47000A9B208E00A4B0C21CC331B88A3721B0A1B
:10C48000E37200E00A210B1C083BA3711B12E3714D
:10C49000201C074B984738BD302E0110C02A0110D0
:10C4A000522B0110FE2B01103C2E0110CBEA001084
:10C4B000E5C200100C4B70B5041C08209C4211D042
:10C4C000002312225A43094DD8B256197689A64242
:10C4D00004D1002906D0535D0B7003E00133082B13
:10C4E000EFD1181C70BDC046FFFF0000C22A01102A
:10C4F000002312225A430649D8B252185189054ADC
:10C50000914203D00133082BF3D1181C7047C04669
:10C51000C22A0110FFFF0000F7B50B78051C581E5A
:10C520004E780F285AD8141C01F08AFA0A44585839
:10C530004444584B2D1225085858393E3B204EE0B4
:10C540003B20002E4BD02D0A15809670353846E0E2
:10C550006B46DF1D01232D0A3B70281C391C204B24
:10C560009847072803D83B783B20002B37D06580BD
:10C570002671092033E03B20002E30D02D0A158093
:10C5800096702D382BE03B20002E28D000232D0A5A
:10C59000158096709380D380138134381FE03B2040
:10C5A000002E1CD0167203E03B20002E17D016710F
:10C5B000123814E03B20002E11D09370D6702A3828
:10C5C0000DE03B20002E0AD02D0A16705580101D5C
:10C5D00000210522034B9847122000E00020FEBDF9
:10C5E000B5C40010DDEA0010F0B585B01D1C0AAB23
:10C5F0001B78019202930BAB1B78071C03930CABC7
:10C600001A8802230E1C234C391C23700C336370D0
:10C61000A370214BE2701A881B8822711B0A1F4FDE
:10C6200010221F486371B847330A26766376019952
:10C63000330C1022360E1B48A376E676B847231C2F
:10C640002C331D70231C2A0A2D331A70231C2A0C2C
:10C650002E331A70231C2D0E2F336A461D70231C97
:10C66000127A30331A70231C002531336A461D704C
:10C67000231C127B32331A70231C33331D702C237E
:10C68000201CA3713421084BE5719847281C05B084
:10C69000F0BDC046302E0110C02A0110CBEA0010B8
:10C6A000382E01104C2E0110E5C20010F0B545786F
:10C6B0000378304C2D021D43A585C37882788BB05A
:10C6C0001B021A436B4605929B8A2021E38543791E
:10C6D00002791B021A436B4606921B8B061C2386AB
:10C6E000C37982791B021A436B4607926A469B8B79
:10C6F00052186386437A011C0893231C12787733FF
:10C7000078341A700A3106221B4B201C9847337C60
:10C7100009931A4B98471A4E071E072F1BD812234E
:10C720004343F018458169462425491909780622B2
:10C73000F15420216B465B181B78211C43706B461B
:10C740009B8A023043816B461B8B83816B469B8B9C
:10C75000C381094B9847122100234F430093019353
:10C76000F6197189074A0291101C191C064CA04742
:10C770000BB0F0BD522B0110CBEA0010F1C4001039
:10C78000C22A0110501E0110E9C50010042210B584
:10C790000C4B00241A700A325A709A700A4AD970E7
:10C7A000118812881971120A5A7101221A7292188C
:10C7B00058729A71DC71181C0A21044B9847201C8E
:10C7C00010BDC046302E0110C02A0110E5C2001075
:10C7D000021C08B5437800781B0218430880937840
:10C7E0008B700021054B9847072806D81223584321
:10C7F000034B181801235B42438108BDB5C40010E8
:10C80000C22A0110F7B500931223041C08A8077868
:10C8100009A806780AA805780BA8007801901048A6
:10C8200003700E23C4700F4C4370837023882488D8
:10C8300003716B461B78240AC3726B461B794471E3
:10C84000C3730823837100230A244172C37110212A
:10C85000054B077346738573047282729847F7BD60
:10C86000302E0110C02A0110E5C20010F8B50E7874
:10C87000031CB01E05285DD8151C0C1C01F0E0F847
:10C880000D035A2F40470920002A54D01B0A538019
:10C890008B782948137100211CE00920002A4AD016
:10C8A000254C1B0A53808B780027101C211C137009
:10C8B000224E17712E3117223230B047281C211C0E
:10C8C00010221E312230B047A11CA81D1C22B047E7
:10C8D000201C391C46221A4B984709202BE0164D84
:10C8E0000231281C1022154E2E30B047281C211C66
:10C8F0003F3012310622B047237E3E352B7019E0BF
:10C900000D48023110220D4B1E30984712E00A4D9F
:10C9100002311022094EA81CB047281C211CE37CC0
:10C92000A27C1B0213431430143108226B82B047DF
:10C93000237F2B770020F8BD801E0110CBEA00106A
:10C94000DDEA001070B50C78031C4978072C5CD820
:10C95000201C01F075F8045A5A5A0B5A1F1F0A205E
:10C96000002A53D01B0A138091704FE0002A0BD08D
:10C970001B0A1380002902D10123937004E00023D5
:10C980009370022902D1D3700C203FE00129FBD122
:10C99000D170F9E714221E481B0AC3701D4B0270A8
:10C9A000063A427082701A881B881B4E1B0A43711C
:10C9B0000123027104724372051C311C0A30072CDA
:10C9C00016D17E311022154CA047331C311C281C77
:10C9D0008E331B889031AB7608221B0A1C30EB7615
:10C9E000A047311C98310A786B1DDA77252104E0C5
:10C9F0009A311022094B98471A210B1C0024083B3E
:10CA0000AB71281C064BEC719847002070BDC046E6
:10CA1000302E0110C02A0110522B0110CBEA001059
:10CA2000E5C20010F0B585B0071C0AA806780BA86F
:10CA300005780CA80078142402900DA800780193C2
:10CA400003900EA80088844612480470063C447087
:10CA500084706446C470104C477223882488037124
:10CA60006B461B79240A03736B461B7A4471C373AC
:10CA70006B461B7B0124037409238371002304721A
:10CA80008172C27246738573C3711121034B98473B
:10CA900005B0F0BD302E0110C02A0110E5C2001013
:10CAA00038B514250D4CE3700D4B2570063D6570AF
:10CAB000A5701D881B8820721B0A63716172094B67
:10CAC000111C09481022257198471223A3710023D5
:10CAD000201CE3711A21054B984738BD302E0110F8
:10CAE000C02A0110CBEA00103A2E0110E5C2001056
:10CAF000F0B5002589B006930EAB1B78171C079381
:10CB00000FAB1B78194A061C059100930290291C53
:10CB10002B1C0195101C164CA0471623154C05998B
:10CB20002370083B6370A370134BE6701A881B8850
:10CB300022711B0A63710B23104E102210482372BE
:10CB40006572B0473B0A069908220E48E376A7763D
:10CB5000B0476A46127F631DDA771D23201CA3713C
:10CB60002521094BE571984709B0F0BD601E011001
:10CB7000E9C50010302E0110C02A0110CBEA0010C8
:10CB80003A2E01104C2E0110E5C2001008B5000A23
:10CB900010804B7808781B0203435380101D02312C
:10CBA0000822014B984708BDCBEA0010F0B50025DC
:10CBB00087B004930CAB1B78171C154A061C059311
:10CBC00000910290291C2B1C0195101C114CA047B0
:10CBD0001823114C049923700A3B6370A3700F4B08
:10CBE0000F481A881B8822711B0A637110220D4B93
:10CBF000E670277298476B461B7D201C63761223D4
:10CC00001A21A371084BE571984707B0F0BDC046E3
:10CC1000701E0110E9C50010302E0110C02A01104D
:10CC2000392E0110CBEA0010E5C200100B78000A83
:10CC3000D3700023108093707047000038B5102423
:10CC4000051C0E480470023C447084700C4CC57086
:10CC500025882488C3721B0A240A037305234471A0
:10CC60000024017242728371120A0D21054B057175
:10CC70008272C4719847201C38BDC046302E011006
:10CC8000C02A0110E5C200100023000A1080937032
:10CC90004B7808781B0203439380CB7888781B027B
:10CCA0000343D3804B7909791B020B43072013817F
:10CCB0007047000A10804B7808781B0203435380AA
:10CCC000CB7888781B02034393804B7908791B0249
:10CCD0000343D380CB7989791B020B43082013814E
:10CCE0007047000008B50B1C010A1180187890707D
:10CCF000002804D1034BAA331B88002B01D0024B20
:10CD0000984708BD522B0110F5C30010000A10808F
:10CD100009780123081C890818400B40D070137152
:10CD20007047000A10804B7818028B781B0403436D
:10CD300008780343C8780006034353604B79180210
:10CD40008B791B0403430879C979034309060B4314
:10CD5000002093607047000010B5000A108008782A
:10CD600090708B784C781B0223439380012827D046
:10CD7000002817D002282AD10B79C8781B02034358
:10CD800013818B7948791B020343D3800B7AC879CE
:10CD90001B02034393818B7A497A1B020B43538115
:10CDA000062313E0141C201C0A79CB7812021A43C4
:10CDB000E280074B0830053198470223A37006E054
:10CDC0000B79C9781B020B43D3800523937010BDE8
:10CDD000CBEA001008B50023000A13705080024B04
:10CDE000101D0522984708BDCBEA00104378027851
:10CDF0001B0213430B80C37882781B0213434B80C2
:10CE0000437902791B0213438B80C37982791B0219
:10CE10001343CB8000230B727047437802781B02C8
:10CE200013430B80C37882781B0213434B807047F7
:10CE3000437802781B0213430B80C37882781B026D
:10CE400013434B80437902791B0213438B80C379D0
:10CE500082791B021343CB807047437802781B0210
:10CE600013430B80C37882781B0213434B804379B2
:10CE700002791B0213438B807047000073B56B4629
:10CE8000154916480C880988DD1D090A002302226D
:10CE90004171D02601210471114C2B700270C370B6
:10CEA0000B3201728171C37108310E4B3601427031
:10CEB0008270A28026809847281C0B4B98472B78BD
:10CEC000E220002B06D1A368E2201A785B78012AC1
:10CED00000D1181C76BDC046C02A0110302E0110AA
:10CEE000B42A0110E5C2001049C30010F0B589B0A2
:10CEF00003930EAB1B78374C04930FAB1B780D27B5
:10CF0000059310AB1B88A172009311AB1B88090A13
:10CF1000019312AB1B886072029306ABDE1D0023E7
:10CF20003370042323700023E3702B4BE1721D88C0
:10CF30001B88111C1B0A6371032325710622274DD0
:10CF4000274823726770A770A847039910222548C5
:10CF5000A8476A46127CE31CDA776A46127D231DD5
:10CF6000DA776A461278631DDA77009BA21D1B0AE6
:10CF7000D3776A461279E31DDA77221C019B0832C7
:10CF80001B0AD3776A46231C127A28331A70221C94
:10CF9000029B29321B0A1370D023134D1B012B80D7
:10CFA0002223A37100232A21E371201C0F4BAF80A1
:10CFB0009847301C0E4B98473378E220002B06D15F
:10CFC000AB68E2201A785B78032A00D1181C09B0FC
:10CFD000F0BDC046302E0110C02A0110CBEA00106F
:10CFE0003C2E0110422E0110B42A0110E5C200109F
:10CFF00049C3001084466346F0B585B00091CF2048
:10D00000012B54D8002952D000222A4902AB0C88A7
:10D0100009889F1D9A71284B090A0D25062659710A
:10D0200061461E705D709D70DA701C7101293ED1E1
:10D03000D021224C090161802149DA7121806146A9
:10D040001E729971181C09211E4BA5809847381C27
:10D050001D4B98473B78E2200193002B27D1218874
:10D060001A4AA768013B914201D023801AE06380ED
:10D07000009B391C581C321C154B9847BB79009AF1
:10D080001370D0231B01238002ABA580DD1D6B46EE
:10D090001B79281C2B700C4B98472B78D020002B29
:10D0A00005D1A7683B787878062B00D0E22005B040
:10D0B000F0BDC046C02A0110302E0110B42A011064
:10D0C000080D0000E5C2001049C30010FFFF00007A
:10D0D000CBEA001037B5164916480C8809886B460C
:10D0E000090A4171022103220172D021DD1D0023B2
:10D0F0000471114C027009010A322B704270827067
:10D10000C3702180A280C3710C3A09210B4B82713C
:10D110009847281C0A4B98472878002801D0E2201D
:10D1200004E0A3685B78442B00D0181C3EBDC046C9
:10D13000C02A0110302E0110B42A0110E5C20010DF
:10D1400049C3001038B5051C0C1C481C0622291CBC
:10D15000024B9847AB790020237038BDCBEA001012
:10D16000F7B5037845780C3B181E0B2800D98DE0E5
:10D170000C1C00F065FC521919198B060659598BC5
:10D180008B0D0023452D00D02B1C237002207EE048
:10D190003B20002D00D17AE00D70481C10220021A8
:10D1A0003B4B98470F2072E0002D34D1394B984704
:10D1B000431EDBB2281C062B69D86B46364ED91DA0
:10D1C000B08D364B984712235843354909180B1C2C
:10D1D0004A89083322814F78A57227708A89601C9A
:10D1E000A281DB880231E381CB89062223822D4B89
:10D1F0009847002F0AD0A3793F22191C013591438B
:10D20000C02903D05B06DB0F0235ED1A01235B4218
:10D210002570B38538E00D7004E00023452D00D063
:10D220002B1C2370032032E01B4E0021B08D1B4BC2
:10D230009847072818D801235B42B3851333584316
:10D24000174909180B1C4A89083322814A78A572AC
:10D2500022708A89601CA281DB880231E381CB893C
:10D26000062223820F4B98470022237893420AD04C
:10D27000A3793F32191C91433E3AC02903D05B0683
:10D28000DB0F0232D21A2270052000E00020FEBD22
:10D29000DDEA0010F1C40010522B0110B5C40010DB
:10D2A000C22A0110CBEA0010F0B589B003930EAB8F
:10D2B000029102CB08AA1B883C4E009310AB1B883E
:10D2C0000D249C4611AB1B78049312AB1B7805937D
:10D2D00013AB1B78069314AB1B78019319239B188F
:10D2E000DD7F18AB1F8819AB1B7832880793304B52
:10D2F00036881A716A46127A1C705C709C705A7279
:10D3000000246A46360ADC7018729C725E71DC7208
:10D3100012780E381A73009A140A62469A7362469B
:10D320005C73140A6A46127CDC731A741C1C012894
:10D3300009D8002903D01F4806221F4B98476B4687
:10D340001B7BE37514E06B461B7D159963746B467C
:10D350001B7E019AA3746B461B791848164EE37422
:10D36000B047231C1648303317992A1C1D70B0474C
:10D37000221CA52350321370221C51321370231C1F
:10D38000221C52331F7053323B0A13706A46231C0F
:10D39000127F54331A704D230025A371201C552190
:10D3A000084BE5719847281C09B0F0BDC02A011050
:10D3B000302E0110412E0110CBEA0010442E011036
:10D3C000612E0110E5C20010044B01201B79022BD5
:10D3D00003D0033B5842584140007047522B011084
:10D3E000F7B54378051C01936B460C1C1B79067836
:10D3F00006224B70881C1B4FA91CB847201C291CF7
:10D400002A7A0830C27709312835B8472B785AB2C2
:10D41000002A01DA0133DBB2221C28321370002209
:10D42000019B93420AD0E3793F32191C91433E3A63
:10D43000C02903D05B06DB0F0232D21A6270042EC1
:10D440000FD8301C00F0FCFA030507090B0000237D
:10D4500006E0012304E0022302E0032300E00523A9
:10D460002370F7BDCBEA0010F8B51423124C171C3B
:10D470002370073B6370A3700023E3700F4B051C00
:10D480001A881B880E4E1B0A637117232D01227107
:10D49000607206220B482372B047391C2A1C0A48C6
:10D4A000B047291C10310B1C083BA3711B12E37100
:10D4B000201C064B9847F8BD302E0110C02A0110E1
:10D4C000CBEA00103A2E0110402E0110E5C20010E8
:10D4D00070B5041C081C0D1C054E211C06221130C1
:10D4E000B047681CA11D1022B04700232B7070BDEF
:10D4F000CBEA001010B543780279447900781B021A
:10D5000003431B2B04D100230B70230213434B80D6
:10D510003B2010BD437802781B0213434B807047B9
:10D5200008B5131C000A10804A78087812020243DA
:10D530005A80CA788878120202439A804A79087918
:10D5400012020243DA800833181C0631014B984757
:10D5500008BDC046CBEA0010437802781B02134393
:10D560000B80704738B514251C1C144BD970144916
:10D570001D70083D5D709D700D8809881872090A3C
:10D580005971000A210A1D7158729C72D9721A735E
:10D590001D1C002C07D00499221C0A480A4B0D348C
:10D5A0009847A1B201E00E215C730B1C083BAB71E4
:10D5B0001B12EB71281C054B984738BD302E01100B
:10D5C000C02A01103D2E0110CBEA0010E5C2001068
:10D5D0000D4B10B59A72032216249A710022D9704D
:10D5E0000A491C700A3C5C709C700C88098818728F
:10D5F000090A000A1C7159715872DA71181C0B2142
:10D60000034B984710BDC046302E0110C02A0110B0
:10D61000E5C2001038B50E4C182523730523A371FD
:10D620000023E1700B4925700C3D6570A5700D88D5
:10D6300009882072090A000A61716072A272E3719E
:10D64000120A201C0D21044B2571E272984738BD47
:10D65000302E0110C02A0110E5C200100E2208B5BC
:10D660000B4B1A70023A5A709A700A4AD870108896
:10D6700012881972120A5A7102229A710022090A3A
:10D6800018715972DA71181C0A21034B984708BDAA
:10D69000302E0110C02A0110E5C2001070B5151C13
:10D6A000000A10804B780A781B0213436B80CB78FA
:10D6B0008A781B021343AB800E79054B301C0C1C7F
:10D6C0009847321CA871611DE81D024B984770BD38
:10D6D000DDBC0010CBEA001070B5151C000A1080EC
:10D6E0004B780A781B0213436B80CB788A781B0235
:10D6F0001343AB804B790A791B021343EB808E797D
:10D70000054B301C0C1C98472872281C321CE11D4C
:10D71000024B0930984770BDDDBC0010CBEA001009
:10D7200070B5151C000A10804B780A781B02134351
:10D730006B80CB788A781B021343AB800B790C1C6F
:10D74000AB714E79054B301C9847E871281C321C90
:10D75000A11D034B0830984770BDC046DDBC0010CA
:10D76000CBEA001070B5151C000A10804B780A78BF
:10D770001B0213436B808E78054B301C0C1C9847A2
:10D78000321C2871E11C681D024B984770BDC046D1
:10D79000DDBC0010CBEA001010B50C78131C122C65
:10D7A0000ED1000A10808A789A7048790C790002AC
:10D7B000204398800631981D0B4B98471B2210E0A0
:10D7C0000022132C0DD1000A18808A789A700879EB
:10D7D000CC780002204398800631981D024B984770
:10D7E0001C22101C10BDC046CBEA001000B5000A78
:10D7F0001080087890704B780138D37013282CD89B
:10D8000000F01EF90C0A0A0A0A0A0A2121211F1136
:10D810001111112B2B13192917201FE02420002B85
:10D820001CD117301AE0252018E00D4A1D2013687E
:10D83000013B136012E00A4A1E201368013B13608B
:10D840000CE019200AE03B20002B07D08221890040
:10D850005354233802E0212000E0002000BDC046E0
:10D86000CC1E0110000A10804B7809781B020B4374
:10D8700053807047000A08B51080131C82220020D4
:10D88000920098544A780878120202435A80CA7863
:10D89000887812020243DA804A7908791202024338
:10D8A0009A800833181C0631014B984708BDC046C2
:10D8B000CBEA0010000A10804B7809781B020B435A
:10D8C000538070470023024A1380024A1380704736
:10D8D000C61E0110C81E0110F7B56B46DE1D0023E1
:10D8E0000D1C0C210B27174C3370E370164B217065
:10D8F00019881B8820721B0A6371000A2B0A217188
:10D900006072111CA5722A1CE3720C350F4B104873
:10D910006770A7709847A9B20E4B0F4D201C2B8043
:10D920000B1C083BA3711B12E3710C4BAF80984793
:10D93000301C0B4B98473378E220002B01D1AB68A9
:10D940009878FEBD302E0110C02A0110CBEA0010DD
:10D950003C2E01100D0B0000B42A0110E5C200108E
:10D9600049C30010F0B585B001920A22041C1D487D
:10D9700002ABDE1D027000230B221B4D0F1C2988F9
:10D980002D8801712D0A4571250A45721749184DD8
:10D99000337042708270C3702980AA80C371093AC3
:10D9A0000A21144B827104729847301C124B98471D
:10D9B0003378E220002B12D1A96801984D780B78BA
:10D9C000CA782D021D438B7812021A433A800E79D1
:10D9D0000A4B05319847E220AC4200D1301C05B01B
:10D9E000F0BDC046302E0110C02A01100B0B000004
:10D9F000B42A0110E5C2001049C30010CBEA0010A0
:10DA00000B7813704B78537070470B781370704716
:10DA10000B7813707047CB7889781B020B43138007
:10DA200070470B7813704B785370704702B471468F
:10DA300049084900095649008E4402BC7047C04657
:10DA400002B4714649084900095C49008E4402BC91
:10DA50007047C046002243088B4274D303098B42AF
:10DA60005FD3030A8B4244D3030B8B4228D3030CAE
:10DA70008B420DD3FF22090212BA030C8B4202D350
:10DA80001212090265D0030B8B4219D300E0090A78
:10DA9000C30B8B4201D3CB03C01A5241830B8B4281
:10DAA00001D38B03C01A5241430B8B4201D34B036A
:10DAB000C01A5241030B8B4201D30B03C01A5241CF
:10DAC000C30A8B4201D3CB02C01A5241830A8B4254
:10DAD00001D38B02C01A5241430A8B4201D34B023D
